:020000040800F2
:1000000020090020D901000849120008A10F0008AA
:100010004512000831050008FD140008000000002A
:10002000000000000000000000000000A91200080D
:10003000350500080000000079120008DD120008F4
:10004000F3010008F3010008F3010008F3010008C0
:10005000F3010008F3010008F3010008F3010008B0
:10006000F3010008F3010008F3010008F3010008A0
:10007000F3010008F3010008F3010008F301000890
:10008000F3010008F3010008F3010008F301000880
:10009000F3010008F3010008F3010008F301000870
:1000A000F3010008F3010008F3010008F301000860
:1000B000F3010008F3010008F3010008F301000850
:1000C000F3010008F3010008F3010008F301000840
:1000D000F3010008F3010008F3010008F301000830
:1000E000F3010008F3010008F3010008F301000820
:1000F000F3010008F3010008F3010008F301000810
:10010000F3010008F3010008F3010008F3010008FF
:10011000F3010008F3010008F30100084913000887
:10012000F3010008F3010008F3010008F3010008DF
:1001300000F002F800F040F80AA090E8000C8244B9
:100140008344AAF10107DA4501D100F035F8AFF296
:10015000090EBAE80F0013F0010F18BFFB1A43F0A5
:1001600001031847A4140000C4140000103A24BF6F
:1001700078C878C1FAD8520724BF30C830C144BF0C
:1001800004680C607047000000230024002500264E
:10019000103A28BF78C1FBD8520728BF30C148BFEA
:1001A0000B6070471FB59DE8030000F0E9F800F010
:1001B0005DF81FBD10B510BD00F01DF91146FFF729
:1001C000F1FF01F007FA00F055F903B4FFF7F2FF71
:1001D00003BC00F0B3F80000094880470948004715
:1001E000FEE7FEE7FEE7FEE7FEE7FEE7FEE7FEE7E7
:1001F000FEE7FEE704480549054A064B7047000044
:1002000045130008310100082001002020090020CA
:1002100020050020200500204FF0000200B5134605
:1002200094469646203922BFA0E80C50A0E80C5016
:10023000B1F12001BFF4F7AF090728BFA0E80C50C7
:1002400048BF0CC05DF804EB890028BF40F8042BC0
:1002500008BF704748BF20F8022B11F0804F18BF2D
:1002600000F8012B704770477047704770B5064C17
:100270007C44064D7D4404E02046016808448047E4
:10028000241DAC42F8D170BDB4130000B4130000BB
:1002900070B5064600F058F8056806F10B0020F02E
:1002A0000704B4429CBF002070BD2B466A68BAB1F7
:1002B0001068A04210D304F1080188423CBF506886
:1002C000586007D35168101941601168091B01601B
:1002D00058601460101D70BD13465268002AE7D1A3
:1002E0002146284600F038F80028DED170BD70B5F0
:1002F0000446051F00F028F80068002C14BF44686D
:1003000070BD002C18BFAC423CBF20466468F8D3D7
:1003100001680A18AA4218BF456003D12A68054639
:100320001144016028684119A1421CBF6C6070BD76
:100330006168696021680844286070BD014918201F
:10034000ABBEFEE726000200004870471800002000
:10035000704770477047704738B504460A4600201A
:100360006946AFF30080002808BF38BD02460099F7
:10037000204600F065F8012038BD012000F088B863
:10038000F8B5AFF30080054600200C46102000BFF2
:100390000646A819A0420DD9324669460020AFF39F
:1003A0000080070008BF00F073F80098A04218BF53
:1003B0000546C419FFF7C8FF05600746F01D20F089
:1003C00007004619284600F00AF8B44208BFF8BDF5
:1003D000A21B31463868BDE8F84000F031B8002172
:1003E0000160C0E901107047102070470048704755
:1003F0001000002070477546FFF7F8FFAE46050075
:100400006946534620F00700854618B020B5FFF72F
:10041000F1FEBDE820404FF000064FF000074FF01E
:1004200000084FF0000BAC46ACE8C009ACE8C009CE
:10043000ACE8C009ACE8C00921F007018D4670475F
:10044000034640688C46002818BF88423CBF0346DC
:100450004068F8D318681844884207D00CF10300AC
:1004600020F00700001D411A521A0146081D0A60BB
:10047000FFF73DBF10B50446AFF300802046BDE84E
:100480001040FFF7A2BE002801D0FFF757BF70470A
:1004900010B500F01DF8BDE81040FFF7F4BF70B5CF
:1004A00005460C460A2000E06D1C00F039F835B115
:1004B00028780028F8D102E0641C00F031F814B16B
:1004C00020780028F8D1BDE870400A2000F028B854
:1004D00010B5012805D0002103A0FFF7E0FF01209F
:1004E00010BD09A1F8E7000053494752544D454D4E
:1004F0003A204F7574206F662068656170206D65C5
:100500006D6F7279000000003A2048656170206DBF
:10051000656D6F727920636F7272757074656400B7
:1005200008B569468DF800000320ABBE08BD000089
:10053000FEE7000070470000EFF3108072B600BFC6
:10054000FEE700002DE9F04F83B00C68002C00F0AE
:10055000EA80A0F18042A2F5843240F2004E4FEAD8
:10056000B22241F60047C4F2010E0092C4F2010724
:10057000062200254FF001094FF0000B4FF0000A52
:10058000B84208BF0522019209E000BF0C680BF1D8
:10059000010B34FA0BF205F1040500F0C48009FAEE
:1005A0000BF814EA080CF1D04C684FF6FF72C1F258
:1005B0001002944210DC122C50D8DFE804F0330A09
:1005C00041454F4F4F4F4F4F4F4F4F4F4F4F4F485A
:1005D0004C00D1F80CA041E04FF6FF72C1F22102AD
:1005E00094420FDC0022C1F2110294421AD0002280
:1005F000C1F21202944215D00022C1F221029442AB
:1006000010D02BE00022C1F2220294420AD0002234
:10061000C1F23102944205D00022C1F2320294426A
:100620001CD100BF8C6844B1012C14BFC0F81480E9
:10063000C0F810804FF0080A10E04FF0040A0DE0F7
:10064000CC6804F1080A09E04FF0000A06E0CC6823
:1006500004F1040A02E0CC6804F10C0A2C460746B7
:10066000BCF5807F24BF203C04373A680F2303FA8F
:1006700004F6B2430AFA04F422433A60CA79D20675
:100680007FF584AF41F21804C4F2020422684FF6E9
:10069000084842F0010222602268CFF6FF7802F09B
:1006A00001020292029A2BF00302724452F80840AF
:1006B00005F00C0603FA06F7009BBC43019F052BCF
:1006C00038BF1F4607FA06F6344342F808404C6824
:1006D000E203DEF8002054BF22EA0C0742EA0C07CE
:1006E000A203CEF80070DEF8042054BF22EA0C0703
:1006F00042EA0C07E202CEF80470DEF8082054BF8C
:1007000022EA0C0742EA0C07A20240F20C44CEF89F
:100710000870C4F20104226854BF22EA0C0242EAC3
:100720000C02226032E703B0BDE8F08F002A08BF58
:10073000090401617047000040F21810C2F2000085
:100740000068704740F2040040F21811C2F2000045
:10075000C2F2000100780A68104408607047000087
:1007600080B542F20000C4F20200016841F01001BD
:100770000160032000F066F80F2000F005F800F09B
:100780002BF8002080BD0000B0B540F20402C2F298
:10079000000240F200011278C2F200014FF47A73B5
:1007A0000968B3FBF2F20446B1FBF2F1084600F02F
:1007B000E7FA0F2C4FF001050CD858B94FF0FF3075
:1007C00021460022002500F02DF840F20800C2F278
:1007D000000004602846B0BD82B041F21800C4F2A7
:1007E00002000168022241F001010160016801F08C
:1007F000010101910199416841F0805141604068D7
:1008000000F08050009000980420C4F201000168BC
:1008100062F31A61016002B07047000080B500F019
:100820008FFE80BD70B514460D46064600F098FE5A
:100830002946224600F00AFD0146304600F098FEA7
:1008400070BD000080B500F0A5FE80BD2DE9F0432D
:1008500081B0002800F0898042F20008C4F202084A
:100860000446D8F800000D4600F0070088420CD27C
:10087000D8F8000020F007002843C8F80000D8F896
:10088000000000F00700A8426FD1206841F204097F
:100890008107C4F2020917D5410705D5D9F8001020
:1008A00041F4E061C9F80010010705D5D9F800103E
:1008B00041F46051C9F80010D9F80010A26821F085
:1008C000F0011143C9F80010C00745D1D8F8000065
:1008D00000F00700A8420CD9D8F8000020F007006B
:1008E0002843C8F80000D8F8000000F00700A8422C
:1008F0003BD12068410707D5D9F80010E26821F400
:10090000E0611143C9F80010000708D5D9F80000CC
:10091000216920F4605040EAC100C9F8000000F0ED
:1009200079F8D9F8001041F2EE52C1F30311C0F684
:100930000002515C40F2000220FA01F140F208008E
:10094000C2F200000068C2F200021160FFF71CFF53
:10095000002001B0BDE8F0836068022809D00128BA
:1009600029D159F8041C890307D4012001B0BDE83E
:10097000F08359F8041C8901F7D5D9F8001021F04B
:1009800003010843C9F80000FFF7D6FE064641F20E
:10099000883700BFD9F80000616800F00C00B0EBA8
:1009A000810F93D0FFF7C8FE801BB842F2D9032015
:1009B00001B0BDE8F08359F8041C8907D5D5DCE700
:1009C00040F20000C2F200000068704780B5FFF7F7
:1009D000F7FF41F20401C4F20201096841F2FE523C
:1009E000C1F30221C0F60002515CC84080BD000086
:1009F00080B5FFF7E5FF41F20401C4F20201096886
:100A000041F2FE52C1F3C221C0F60002515CC8405F
:100A100080BD000041F2040CC4F2020CDCF800308E
:100A200003F00C00082841F20020C0F27A0018BF41
:100A30007047C3F383420AA18A5CD90305D440F608
:100A40000010C0F23D0050437047DCF8001008A3CE
:100A5000C1F34041595C5043B0FBF1F0704700BF17
:100A600002030405060708090A0B0C0D0E0F1010EF
:100A7000010200002DE9F04182B0002800F0C4809E
:100A80000446007841F20006C007C4F2020643D0D3
:100A9000706800F00C00042817D0706800F00C009B
:100AA000082802D17068C0030FD465682DB1B5F570
:100AB000A02F10D0B5F5803F11D0306820F48030E1
:100AC0003060306820F480200CE03068800323D54B
:100AD000606808BB98E0306840F48020306030687F
:100AE00040F480303060FFF727FE002D054610D01F
:100AF0003068800310D4FFF71FFE401B6428F7D92D
:100B000004E100BFFFF718FE401B64284FF003000C
:100B100077D830688003F5D42078800718D57068BE
:100B200010F00C0F07D0706800F00C00082826D1D8
:100B30007068C00323D43068800702D5206901287B
:100B400062D13068616920F0F80040EAC10030608D
:100B5000207800073DD5A06938B30020C4F24220B8
:100B60000121C0F88014FFF7E7FD0546706A800791
:100B70002DD4FFF7E1FD401B0228F7D9C6E020691C
:100B8000002840F20000C4F2422000F096800121CB
:100B90000160FFF7D1FD054630688007D1D4FFF72B
:100BA000CBFD401B0228F7D9B0E00020C4F2422060
:100BB0000021C0F88014FFF7BFFD0546706A80076A
:100BC00007D5FFF7B9FD401B0228F7D99EE000F0DA
:100BD00055FB207840071BD4E5698DB1706800F0A3
:100BE0000C00082847D1012D0ED07068216A00F44E
:100BF00080328A4208D1616A00F47010884203D1C1
:100C0000002002B0BDE8F081012002B0BDE8F08113
:100C1000F06910F0805808D1F06940F08050F06120
:100C2000F06900F080500190019847F20007C4F28B
:100C300000073868C00510D4386840F48070386008
:100C4000FFF77AFD054600BF3868C00505D4FFF7F9
:100C500073FD401B6428F7D958E0E5681DB1052DE8
:100C60003CD0012D3ED0306A20F001003062306A65
:100C700020F0040039E00027C4F242270020386643
:100C8000FFF75AFD022D05460CD100BF30688001E8
:100C900054D5FFF751FD401B02284FF00300F5D952
:100CA000AFE700BF30688001AAD5FFF745FD401BC4
:100CB00002284FF00300F5D9A3E700210160FFF7F8
:100CC0003BFD0546306880077FF542AFFFF734FDF6
:100CD000401B02284FF00300F4D992E7306A40F03D
:100CE00004003062306A40F001003062FFF724FDFA
:100CF000002D054641F2883714D000BF306A8007C6
:100D000013D4FFF719FD401BB842F7D9032002B0F6
:100D1000BDE8F081FFF710FD401BB8424FF0030023
:100D20003FF66FAF306A8007F4D4B8F1000F7FF45C
:100D300053AFF06920F08050F0614DE7206AB0F5C4
:100D4000803F05D17168A26821F4003111437160C0
:100D50007168626A21F474111043084370600120C5
:100D60003866FFF7E9FC0446306880013FF548AF7C
:100D7000FFF7E2FC001B02284FF00300F4D940E724
:100D800080B500F093FA80BD10B590F83C20012AA0
:100D90004FF0020241D0012380F83C3080F83D2022
:100DA0000268D2F804E0D2F808C00C682EF0700394
:100DB000234340F6FF34C4F20004A24253600FDC28
:100DC000B2F1804F1ED040F20043C4F200039A42B9
:100DD00018D040F60003C4F200039A4212D016E085
:100DE00040F60043C4F200039A420BD043F20043A2
:100DF000C4F201039A4205D042F60043C4F2010353
:100E00009A4204D149682CF0800319439160012172
:100E1000002280F83D1080F83C20104610BD0000F4
:100E2000002804BF0120704710B5044690F83D002B
:100E300028B9002084F83C00204600F01FF802206A
:100E400084F83D002068211D00F082FA012084F81A
:100E5000460084F83E0084F83F0084F8400084F89F
:100E6000410084F8420084F8430084F8440084F888
:100E7000450084F83D00002010BD000080B582B020
:100E8000006841F20041C4F20001884201D002B082
:100E900080BD41F21C00C4F202000168002241F052
:100EA000200101600068002100F0200001900198FD
:100EB0003720FFF7B7FC3720FFF7B0FC02B080BD4A
:100EC000002804BF0120704710B5044690F83D008B
:100ED00028B9002084F83C00204600F021F82420A6
:100EE00084F83D002068C16821F40051C1602046AB
:100EF00000F0BCFA2068016921F490410161416968
:100F000021F02A014161C16841F40051C160002013
:100F10002021206484F83D1084F83E1010BD0000AC
:100F200070B586B040F60004C4F20104006804F510
:100F30004051002688420596CDE90366029601D00D
:100F400006B070BD41F21800C4F20200016802ADA3
:100F500041F480410160016801F4804101910199EF
:100F6000016841F0040101600068294600F00400B6
:100F7000019001984FF4007002900220039003202A
:100F800005902046FFF7DEFA4FF48060CDE90206B7
:100F9000204629460496FFF7D5FA06B070BD00003A
:100FA000FEE700002DE9F04F83B0994201930290D3
:100FB00002D903B0BDE8F08F02980C9F101A0130DF
:100FC00041F2100440F60C488B46C4F201040104BF
:100FD0004FF480764FF40075C4F201084FF0800999
:100FE0001FFA80FA009106E00BF1010B01991FFA3C
:100FF0008BF08842DDD802981FFA8BF100F014F8CC
:1010000000F070F800980028EED00020013081B286
:10101000514526606560C8F80070C4F80490C4F8B3
:1010200000902560F2D3DFE72DE9F04F81B040F268
:101030000419C2F200098A46B9F80A1005460846A2
:1010400000F03AF841F2100640F60C4BC4F20106EB
:101050004FF480784FF40077280AC4F2010BC6F8E9
:1010600000807760CBF800008024E8B274603460C0
:101070003760C6F800807760CBF800007460346099
:101080003760B9F80C0000F017F84FEA1A20C6F8DC
:1010900000807760CBF800005FFA8AF074603460FB
:1010A0003760C6F800807760CBF800007460346069
:1010B000376001B0BDE8F08F41F21401C4F20101C4
:1010C0004FF4807240F60C430A604FF40072C4F291
:1010D00001030A6018608020086041F8040C41F8A0
:1010E000042C704780B540F20410C2F20000008961
:1010F000FFF7E2FF80BD00002DE9F04786B04FF01A
:10110000000941F21800CDE90499CDE90299C4F231
:101110000200016840F6004441F0100101600168DE
:10112000C4F2010401F0100101910199016800224B
:1011300041F02001016001684FF6FF7601F02001C7
:1011400001910199016841F008010160016801F015
:10115000080101910199016841F0040101600068F2
:101160004FF6FF7100F00400019001982046FFF750
:10117000DDFA04F5806528464FF4F86100224FF44B
:10118000F868FFF7D3FA029602AE4FF0010A022781
:1011900020463146CDE903A90597FFF7D3F9284644
:1011A0003146CDE9028ACDE90497FFF7CBF906B0C5
:1011B000BDE8F08710B582B040F2780041F20041FE
:1011C000C2F20000C4F200010024472240F2E733DB
:1011D00080E816008021CDE90044C3608161FFF7FB
:1011E0001FFE002818BFFFF7A7F940F27800C2F2EF
:1011F00000006946CDE90044FFF7C6FD002818BF8E
:10120000FFF79AF902B010BD80B540F2C00043F676
:101210000001C2F20000C4F2010100234FF00C0CE7
:101220004FF4E13280E80E00C0E90333C0E905C3A2
:10123000C361FFF745FE002818BFFFF77DF980BDA9
:10124000FEE70000FEE70000FEE7000000F00700F8
:1012500080F00703042B28BF04234FF0FF3C033822
:101260000CFA03F338BF0020994381400CFA00F0D8
:1012700022EA0000084370477047000081B040F246
:101280000000C2F20000006844F6D351C1F26201CE
:10129000A0FB0101480A009000BF0098411E0028F1
:1012A0000091F9D101B0704770470000B0B5013826
:1012B0000024B4EB106F1CBF0120B0BD4EF210052E
:1012C000CEF2000568604FF0FF300F2100F050F9BA
:1012D0000720AC6028602046B0BD000080B5FFF755
:1012E00031FA80BD70B590B006AC20462821FEF7DB
:1012F00093FF012006900A904FF4E01000254FF470
:10130000803102260F9020460595CDE90355CDE9A1
:101310000155CDE90715CDE90D61FFF7ABFB78B9B4
:101320000F20CDE901064FF48060CDE9040501A846
:1013300002210395FFF78AFA002804BF10B070BDA0
:10134000FFF7FAF87047000080B500F06DF880BD37
:1013500010B540F6FF3E0368C4F2000E43F2004CA5
:101360007045C4F2010C20DCB0F1804F2BD040F26C
:101370000042C4F20002904225D040F60002C4F2BE
:10138000000290421FD0704523DCB0F1804F2ED078
:1013900040F20042C4F20002904228D040F600021F
:1013A000C4F20002904222D025E040F60042C4F28E
:1013B0000002904207D0604505D042F60042C4F2D8
:1013C00001029042DFD14A6823F070031343704555
:1013D000DBDD40F60042C4F20002904207D06045D7
:1013E00005D042F60042C4F20102904203D1CA681D
:1013F00023F44073134323F080024B69D1F800E0DB
:101400008C681A4360450260C462C0F828E005D0C9
:1014100042F60042C4F20102904201D1096901631F
:101420000121416110BD000080B582B040F278001A
:10143000C2F2000000686FF00101016140F270002B
:10144000C2F2000001684A1C282902600BD3002167
:1014500001604FF01F0C0A200A2164226423CDF89A
:1014600000C0FFF79FFD02B080BD000010B504462C
:101470000068D4E902C22369016921F44051114393
:101480000161616943EA0C021143C26841F20C63D5
:101490009A431143C1604169A26921F4407111432B
:1014A00043F60002C4F201029042416102D0FFF70C
:1014B0008DFA01E0FFF79CFA626819214843910018
:1014C000B0FBF1F048F21F51C5F2EB11A0FB012374
:1014D0005A096FF0630302FB0300322303EB001091
:1014E000A0FB0101F02303EA5113206803EB021271
:1014F000C1F343111144816010BD0000FEE70000FC
:1015000080B500F057F880BD0160704740F274006C
:10151000C2F200000068704710B50446002808BFFA
:10152000012400BF2046FEF7B3FE002818BF10BDFF
:10153000FFF7ECFF08B18047F4E7002010BD000082
:10154000002848BF704700F01F01012202FA01F194
:101550004EF200124009CEF2000242F8201070470D
:101560004EF60C50CEF200000068C0F30220704727
:101570004EF6145300F00F02CEF2000309011A4494
:1015800000F16043B0F1FF3FC8BF03F56442117042
:10159000704700004EF60C51CEF200010A684FF67B
:1015A000FF031A4060F30A2242F0806040F0FD70B1
:1015B0000860704780B58820FFF7AEFF40F2C00199
:1015C000C2F20001FFF7A0FF40F21411C2F20001C5
:1015D000086080BDFFF7C4F8FFF784FEFFF78CFDBD
:1015E000FFF712FEFFF7E6FDFFF72AFEFEE7000019
:1015F00000000000000001020304060708090000C3
:101600000000010203040000301600080000002062
:10161000100000006C0100084016000810000020B7
:101620001009000088010008D9FEFFFF000000003B
:101630000024F40001000000100000000000000081
:0400000508000131BD
:00000001FF
